:04000000FEEFFFF020
:1026000000486F6C61206D756E646F2100437565C5
:102610006E74613A00000DC506F50EC507F5270E6C
:10262000096E100E086EA5EC13F00650166E270EFC
:10263000046E100E036E0DC501F50EC502F518EC03
:1026400014F001C506F502C507F5030E096EE80E84
:10265000086EA5EC13F00650156E030E046EE80E1E
:10266000036E0DC501F50EC502F518EC14F001C599
:1026700006F502C507F5000E096E640E086EA5EC9E
:1026800013F00650146E000E046E640E036E0DC53A
:1026900001F50EC502F518EC14F001C506F502C5EA
:1026A00007F5000E096E0A0E086EA5EC13F0065031
:1026B000136E0DC501F50EC502F5000E046E0A0E6F
:1026C000036E18EC14F00150126E120036EC15F087
:1026D000000E046E010E98EC14F0010E056E260E2D
:1026E000066E73EC14F0000E046E020E98EC14F0FB
:1026F0000D0E056E260E066E73EC14F010C50DF56A
:1027000011C50EF50BEC13F01650300FECEC14F075
:102710001550300FECEC14F01450300FECEC14F0BA
:102720001350300FECEC14F01250300FECEC14F0AE
:10273000820E0F6EDE0EE82EFED70F2EFCD7104A4B
:10274000112A73EF13F0FEEFFFF0000E0B6E000E78
:102750000A6E08500910D8B4B0EF13F0B2EF13F0BE
:10276000DAEF13F0010E0C6EBAEF13F0D8900836C2
:1027700009360C2A09AEBFEF13F0C1EF13F0B6EF24
:1027800013F0D8900A360B360850065C09500758EB
:10279000D8A0CDEF13F0CFEF13F0D4EF13F0085023
:1027A000065E0950075A0A80D890093208320C2E6A
:1027B000C1EF13F00AC506F50BC507F51200F80EB8
:1027C000C96EC190C182C184210EE82EFED700F0EF
:1027D000D1C401F5C194210EE82EFED700F0C184CA
:1027E000210EE82EFED700F0C1940150800B016E3F
:1027F0000EEF14F0C184210EE82EFED700F0D1C4F4
:1028000001F5C194210EE82EFED700F0C184210EFF
:10281000E82EFED700F0C194F5EF13F0800E0118FA
:10282000D8B415EF14F017EF14F0FAEF13F012000C
:1028300003500410D8B41FEF14F021EF14F045EF4B
:1028400014F0010E056E29EF14F0D890033604360B
:10285000052A04AE2EEF14F030EF14F025EF14F03B
:102860000350015C04500258D8A039EF14F03BEF3C
:1028700014F03FEF14F00350015E0450025AD89058
:1028800004320332052E30EF14F001C501F502C504
:1028900002F51200C190C192300E4DEC15F0030EFE
:1028A000046E980EE82EFED7042EFCD7300E4DECA9
:1028B00015F0210EE82EFED700F0300E4DEC15F08D
:1028C000200E4DEC15F0010ED2EC14F0280ED2ECD7
:1028D00014F00F0ED2EC14F0060ED2EC14F0010E30
:1028E000D2EC14F0120005C501F506C502F5B5ECF1
:1028F00014F00150096E000E0A6E8EEF14F00A50AB
:102900000524076E000E0620086E07C5F6F408C5FC
:10291000F7F40800F550ECEC14F00A2A09500A5CB0
:10292000D8A095EF14F097EF14F07FEF14F0120099
:10293000056E0504D8A49FEF14F0A1EF14F0A7EFE3
:1029400014F00450800FD2EC14F0B4EF14F0020E27
:102950000518D8A4AEEF14F0B0EF14F0B4EF14F0F3
:102960000450C00FD2EC14F0120001C503F502C5EB
:1029700004F5BDEF14F0014A022A01C5F6F402C5C0
:10298000F7F40800F5500009D8A4C9EF14F0CBEF14
:1029900014F0BBEF14F00350015C016E04500258B8
:1029A000026E1200026EC190DFEC13F0000EC96ED1
:1029B000210EE82EFED700F0C192C194C1900250C2
:1029C000F00B036E03504DEC15F00238F00B036E64
:1029D00003504DEC15F01200026EC180DFEC13F0D5
:1029E000000EC96E210EE82EFED700F0C192C194F0
:1029F000C1800250F00B036E03504DEC15F002380D
:102A0000F00B036E03504DEC15F01200140E056E22
:102A10007A0EE82EFED7052EFCD74AEC14F0140EE1
:102A2000056E7A0EE82EFED7052EFCD76CEC15F05D
:102A300068EC15F0010E1EEC15F01200046E045047
:102A4000D8A425EF15F027EF15F02AEF15F00E0E9C
:102A5000D2EC14F00404D8A430EF15F032EF15F0E6
:102A600035EF15F00C0ED2EC14F01200600E0001E0
:102A7000AD6F020EB16F400EB36F000EC96E000E47
:102A80000401186FC8921093C768FC0E086FC680C7
:102A9000008106EC15F0C0821200016E0F0EC11607
:102AA000F00E01160150C112C184210EE82EFED78E
:102AB00000F0C194120001EE10F1070EEE6AE80674
:102AC000FDE1000EF86E260EF76E000166EF13F0C2
:102AD000020ED2EC14F01200010ED2EC14F012002F
:020000040001F9
:04FFFC005BEF15F0B2
:020000040020DA
:10000000FF0FFF0FFF0FFF0FFF0FFF0FFF0FFF0F80
:10001000FF0FFF0FFF0FFF0FFF0FFF0FFF0FFF0F70
:10002000FF0FFF0FFF0FFF0FFF0FFF0FFF0FFF0F60
:10003000FF0FFF0FFF0FFF0FFF0FFF0FFF0FFF0F50
:020000040030CA
:0A000000FFFF3BDF9FFFFFFFFFFF44
:00000001FF
