:04000000FEEFFFF020
:020000040001F9
:10FE4600777C395E79716F74301E763815543F733E
:10FE560067506D783E1C2A766E5B20202020555018
:10FE6600414F20202000460EF66EFE0EF76E010E64
:10FE7600F86E01EE01F110EE26F00900F5C4EEF47D
:10FE8600E550E150FAE1296A000168EFFFF0600EE3
:10FE96000001AD6F020EB16F400EB36F800EC76EDC
:10FEA600800E0401086FF00EC66EF00E006FC9805A
:10FEB60018911981BE68900E03011A6F520E1B6FBE
:10FEC6003C0E196FB00E186F12004AECFFF06EEF81
:10FED600FFF08DECFFF0B1AE73EFFFF075EFFFF0C2
:10FEE6006CEFFFF0B19E3C0E0301196FB00E186F58
:10FEF600070E2918D8A482EFFFF084EFFFF088EFF1
:10FF0600FFF0000E296E6EEFFFF0292A6EEFFFF06C
:10FF1600FEEFFFF01B0E2924D96EDA6A050EDA22EF
:10FF2600DF50276E286AC00E2724D96E040E2820BB
:10FF3600DA6EDF50BF6EFE0EBE6E1A0E276EF80E1C
:10FF4600E82EFED7272EFCD700D0BE681C0E29242B
:10FF5600D96EDA6A050EDA22DF50276E286AC00EDD
:10FF66002724D96E040E2820DA6EDF50BF6EFD0EF0
:10FF7600BE6E1A0E276EF80EE82EFED7272EFCD779
:10FF860000D0BE681D0E2924D96EDA6A050EDA2263
:10FF9600DF50276E286AC00E2724D96E040E28204B
:10FFA600DA6EDF50BF6EFB0EBE6E1A0E276EF80EAF
:10FFB600E82EFED7272EFCD700D0BE681E0E2924B9
:10FFC600D96EDA6A050EDA22DF50276E286AC00E6D
:10FFD6002724D96E040E2820DA6EDF50BF6EF70E86
:10FFE600BE6E1A0E276EF80EE82EFED7272EFCD709
:0AFFF60000D0BE68120036EFFFF0E5
:020000040020DA
:10000000FF0FFF0FFF0FFF0FFF0FFF0FFF0FFF0F80
:10001000FF0FFF0FFF0FFF0FFF0FFF0FFF0FFF0F70
:10002000FF0FFF0FFF0FFF0FFF0FFF0FFF0FFF0F60
:10003000FF0FFF0FFF0FFF0FFF0FFF0FFF0FFF0F50
:020000040030CA
:0A000000FFFF3BDF9FFFFFFFFFFF44
:00000001FF
