:04000000FEEFFFF020
:1025000000456A656D706C6F2023330043616E6116
:102510006C205241303A00000DC506F50EC507F596
:10252000030E096EE80E086ED1EC12F00650126E22
:10253000030E046EE80E036E0DC501F50EC502F51F
:102540007AEC13F001C506F502C507F5000E096E19
:10255000640E086ED1EC12F00650116E000E046E7F
:10256000640E036E0DC501F50EC502F57AEC13F08D
:1025700001C506F502C507F5000E096E0A0E086EC4
:10258000D1EC12F00650106E0DC501F50EC502F526
:10259000000E046E0A0E036E7AEC13F001500F6EFB
:1025A0001200000E0B6E000E0A6E08500910D8B40F
:1025B000DCEF12F0DEEF12F006EF13F0010E0C6EFE
:1025C000E6EF12F0D890083609360C2A09AEEBEF88
:1025D00012F0EDEF12F0E2EF12F0D8900A360B365F
:1025E0000850065C09500758D8A0F9EF12F0FBEF2D
:1025F00012F000EF13F00850065E0950075A0A80E7
:10260000D890093208320C2EEDEF12F00AC506F50B
:102610000BC507F51200F80EC96EC190C182C184C6
:10262000F00E00D0E82EFDD7D1C401F5C194F00E14
:1026300000D0E82EFDD7C184F00E00D0E82EFDD7E3
:10264000C1940150800B016E3AEF13F0C184F00E7B
:1026500000D0E82EFDD7D1C401F5C194F00E00D012
:10266000E82EFDD7C184F00E00D0E82EFDD7C1942E
:1026700021EF13F0800E0118D8B441EF13F043EFAF
:1026800013F026EF13F012008EEC14F0F9EC13F0B7
:10269000000E046E010EDCEC13F0010E046E0A0E47
:1026A000056E2DEC14F079EC14F001C50DF502C5A2
:1026B0000EF58CEC12F0000E046E020EDCEC13F042
:1026C0000C0E046E0A0E056E2DEC14F01250300F35
:1026D00047EC14F01150300F47EC14F01050300F4D
:1026E00047EC14F00F50300F47EC14F053EF13F099
:1026F000FEEFFFF003500410D8B481EF13F083EF26
:1027000013F0A7EF13F0010E056E8BEF13F0D890C6
:1027100003360436052A04AE90EF13F092EF13F05F
:1027200087EF13F00350015C04500258D8A09BEFD0
:1027300013F09DEF13F0A1EF13F00350015E04506E
:10274000025AD89004320332052E92EF13F001C5DD
:1027500001F502C502F51200C190C192300EA3EC42
:1027600014F0200E046E2A0EE82EFED7042EFCD79D
:10277000200E046E2A0EE82EFED7042EFCD7300E53
:10278000A3EC14F0F00E00D0E82EFDD7300EA3EC31
:1027900014F0200EA3EC14F0010E13EC14F0280E2C
:1027A00013EC14F00F0E13EC14F0060E13EC14F0EF
:1027B000010E13EC14F01200056E0504D8A4E3EF2B
:1027C00013F0E5EF13F0EBEF13F00450800F13EC70
:1027D00014F0F8EF13F0020E0518D8A4F2EF13F07E
:1027E000F4EF13F0F8EF13F00450C00F13EC14F0F3
:1027F0001200000EC96E000E0401186FACEC13F04D
:10280000020E066E0F0E056E1E0EE82EFED7052E6A
:10281000FCD7062EFAD7C0EC14F0BCEC14F0010E75
:1028200061EC14F01200026EC1900BEC13F0000E7C
:10283000C96EF00E00D0E82EFDD7C192C194C190B0
:102840000250F00B036E0350A3EC14F00238F00BAF
:10285000036E0350A3EC14F01200000E076E000E7E
:10286000076E3DEF14F004500724066E06C5F6F41B
:102870000800F55047EC14F0072A0550075CD8A073
:1028800044EF14F046EF14F033EF14F01200026E30
:10289000C1800BEC13F0000EC96EF00E00D0E82ED4
:1028A000FDD7C192C194C1800250F00B036E03505A
:1028B000A3EC14F00238F00B036E0350A3EC14F0F9
:1028C0001200046E0450D8A468EF14F06AEF14F0FC
:1028D0006DEF14F00E0E13EC14F00404D8A473EF93
:1028E00014F075EF14F078EF14F00C0E13EC14F0F4
:1028F0001200000E0301EC6FF381F3B182EF14F0CC
:1029000084EF14F07DEF14F0EB51046E036AEA518A
:102910000324016E000E0420026E1200600E0001FE
:10292000AD6F060EB16F400EB36FC78804010899F2
:102930000989C68000810301F351F30B0409F36F89
:10294000F389F38F1200016E0F0EC116F00E0116FF
:102950000150C112C184F00E00D0E82EFDD7C19401
:102960001200126A116A106A0F6A000EF86E250EC4
:10297000F76E000144EF13F0020E13EC14F0120096
:08298000010E13EC14F012002B
:020000040001F9
:04FFFC00B1EF14F05D
:020000040030CA
:08000000FCFF3DDF9FFFFFFF45
:01000900FFF7
:00000001FF
