:020000000FD01F
:0200080033D0F3
:0200180035D0E1
:100020000001600EAD6F020EB16F400EB36F0401A0
:10003000800EC96E186FFC0EC66E006FC7800891E7
:100040000981C78208930983D68AD68ED68C9F8071
:10005000A480D690D6926891010EBE6EF86A010E09
:10006000F76E000EF66E006A53EC00F0BE1EFCD771
:10007000AF90090E006202D0006A01D0002A4DEC58
:1000800000F01000B490000E006203D0090E006E64
:1000900001D000064DEC00F0100000C5F6F4080099
:1000A000F5C4C1F41200500E016E5BEC00F0012E9D
:1000B00055EF00F01200320E026E63EC00F0022EDB
:1000C0005DEF00F012000E0E036E0000032E65EFD0
:0400D00000F012002A
:0A0100003F065B4F666D7D077F67C9
:020000040030CA
:08000000FFFF33DF9FFFFFFF4C
:01000900FFF7
:00000001FF
