:0400000081EF00F09C
:10000800A009A009A009A0094000A0094000A00972
:10001800A009A009A009A009A009A009A009A00990
:10002800A009400040004000A009A009A009A009BB
:10003800A009A009A009A009A009A009A00993097D
:10004800A009A009A009A00940004000A009A00932
:10005800A009A009A0094000A009A009A009A009B9
:10006800A009A009A009A009A009A009A009A00940
:10007800A009A009A009A0094000A009A009A00999
:10008800A009A009A009A009A009A009A009A00920
:10009800A009A009A009A0094000A009400040004B
:1000A800A009A009A009A009A009A009A009A00900
:1000B800A009A009A009A009A009A009A009A009F0
:1000C800A009A009A009A009A009A009A009A009E0
:1000D800A009A009A009A009A009A009A009A009D0
:1000E8004000A009A009A0094000400040004000CD
:0E00F800A009A009A009A009FF000BEF13F05A
:102500000000EDEC12F0010E1224D96EDA6A050E0D
:10251000DA22DF50C16EBF80030E136E980EE82ED4
:10252000FED7132EFCD7BF90020E1224D96EDA6AA2
:10253000050EDA22DF50C16EBF82030E136E980EB5
:10254000E82EFED7132EFCD7BF92030E1224D96EAD
:10255000DA6A050EDA22DF50C16EBF84030E136EF5
:10256000980EE82EFED7132EFCD7BF94040E12242B
:10257000D96EDA6A050EDA22DF50C16EBF86030E0D
:10258000136E980EE82EFED7132EFCD7BF96050EBD
:102590001224D96EDA6A050EDA22DF50C16EBF88C6
:1025A000030E136E980EE82EFED7132EFCD7BF989D
:1025B000060E1224D96EDA6A050EDA22DF50C16ED9
:1025C000BF8A030E136E980EE82EFED7132EFCD78B
:1025D000BF9A83EF12F081EF00F0600E0001AD6F43
:1025E000020EB16F400EB36F000EC96E000E0401F3
:1025F000186FC00EC76EC00E086FFC0E206F030E62
:10260000216F970E03011A6F400E1B6FA18ED68E9D
:10261000000EBF6E12006C0EF66E260EF76E000EE8
:10262000F86E01EE01F110EE11F00900F5C4EEF4C0
:10263000E550E150FAE1126A0401080E5D6F000EE8
:102640005E6F000E5F6F000181EF12F0B19E0B0E06
:102650001218D8A42EEF13F030EF13F034EF13F06C
:10266000000E126E35EF13F0122A11000000000068
:0D267000000073383E153F540000000000CC
:02268000110047
:020000040030CA
:08000000FFFF3DDF9FFFFFFF42
:01000900FFF7
:00000001FF
