:020000007FD0AF
:100100000001600EAD6F020EB16F400EB36F0201C1
:10011000390E2B6F0301800E1A6F4B0E1B6FFA0EF8
:10012000196F0401800EC96F186FF00EC76F086F4A
:10013000FB0ECB6F286FF86B300EF76FF66BBF6B53
:10014000F66B0800F551C16FBF81C1EC00F0BF91A3
:10015000F62B0800F551C16FBF83C1EC00F0BF93CF
:10016000F62B0800F551C16FBF85C1EC00F0BF95BB
:10017000F62B0800F551C16FBF87C1EC00F0BF97A7
:10018000DFD70000000000000000000000000000B9
:10019000000000000000000000000000000000005F
:0C01A00000000000000000000000120041
:04300000397630737A
:020000040030CA
:08000000FCFF3DDF9FFFFFFF45
:01000900FFF7
:00000001FF
