:04000000FEEFFFF020
:1026000000004CEC13F0C080076ACFB00AEF13F063
:102610000CEF13F016EF13F0010E0724D96EDA6AEF
:10262000050EDA22DF50C16E20EF13F007500408C8
:10263000D96E000ED8A0E82A0508DA6EDF50C16E08
:10264000110E066E3C0E056ECB0EE82EFED7052E43
:10265000FCD7062EFAD70000072A030E076433EFD3
:1026600013F035EF13F005EF13F004EF13F0FEEF66
:10267000FFF0BA0EF66E260EF76E000EF86E01EE43
:1026800001F110EE04F00900F5C4EEF4E550E1505C
:10269000FAE1000101EF13F0600E0001AD6F080ECA
:1026A000B16F400EB36F800EC96E800E0401186FBB
:0E26B000C8901091089109811200091240246F
:020000040001F9
:04FFFC0039EF13F0D6
:020000040030CA
:08000000FCFF3DDF9FFFFFFF45
:01000900FFF7
:00000001FF
