:04000000FEEFFFF020
:1025000000486F6C6120555043494E4F006D656324
:1025100061207920656C65630000056E0504D8A410
:1025200094EF12F096EF12F09CEF12F00450800F2F
:1025300083EC13F0C9EF12F0020E0518D8A4A3EF34
:1025400012F0A5EF12F0ABEF12F00450C00F83ECC5
:1025500013F0C9EF12F0030E0518D8A4B2EF12F071
:10256000B4EF12F0BAEF12F00450940F83EC13F0B2
:10257000C9EF12F0040E0518D8A4C1EF12F0C3EF92
:1025800012F0C9EF12F00450D40F83EC13F0C9EF2E
:1025900012F01200C190C192300EAFEC13F0150E84
:1025A000046EC60EE82EFED7042EFCD700D0300EE7
:1025B000AFEC13F0850EE82EFED70000300EAFEC26
:1025C00013F0200EAFEC13F0010E83EC13F0280E85
:1025D00083EC13F00F0E83EC13F0060E83EC13F074
:1025E000010E83EC13F0120004C501F535EC13F075
:1025F0000150066E000E076E0CEF13F00450072416
:10260000056E05C5F6F4250EF76E000EF86E08008F
:10261000F55099EC13F0072A0650075CD8A013EF89
:1026200013F015EF13F0FEEF12F01200000EC96E5A
:10263000000E0401186F4E0E056EEB0EE82EFED74D
:10264000052EFCD70000CAEC12F04E0E056EEB0E04
:10265000E82EFED7052EFCD70000C9EC13F0C5EC20
:1026600013F0010E6BEC13F0120001C503F53AEF05
:1026700013F0012A01C5F6F4250EF76E000EF86E70
:102680000800F5500009D8A448EF13F04AEF13F002
:1026900039EF13F00350015C016E026A01BE0206BD
:1026A0001200BDEC13F016EC13F0000E046E010ED8
:1026B0008DEC12F0010E046EF4EC12F0000E046EBC
:1026C000020E8DEC12F00D0E046EF4EC12F067EFBA
:1026D00013F0FEEFFFF0046E0450D8A472EF13F075
:1026E00074EF13F077EF13F00E0E83EC13F0040485
:1026F000D8A47DEF13F07FEF13F082EF13F00C0EF0
:1027000083EC13F01200026EC190850EE82EFED706
:102710000000C192C194C1900250F00B036E0350AF
:10272000AFEC13F00238F00B036E0350AFEC13F074
:102730001200026EC180850EE82EFED70000C19205
:10274000C194C1800250F00B036E0350AFEC13F044
:102750000238F00B036E0350AFEC13F01200016E61
:102760000F0EC116F00E01160150C112C184850E64
:10277000E82EFED70000C1941200600E0001AD6F7C
:10278000050EB16F400EB36F1200020E83EC13F012
:102790001200010E83EC13F01200000151EF13F050
:020000040001F9
:04FFFC00CDEF13F042
:020000040030CA
:08000000FFFF3DDF9FFFFFFF42
:01000900FFF7
:00000001FF
