:04000000FEEFFFF020
:020000040001F9
:10FFAC000001DEEFFFF0CB960401089909891200DD
:10FFBC00D9ECFFF0CFB8E5EFFFF0E7EFFFF0F9EF8A
:10FFCC00FFF0C396820E016EDE0EE82EFED7012ED8
:10FFDC00FCD7C386820E016EDE0EE82EFED7012EF4
:10FFEC00FCD7E0EFFFF0C386E0EFFFF0FEEFFFF091
:04FFFC00D6EFFFF04D
:020000040020DA
:10000000FF0FFF0FFF0FFF0FFF0FFF0FFF0FFF0F80
:10001000FF0FFF0FFF0FFF0FFF0FFF0FFF0FFF0F70
:10002000FF0FFF0FFF0FFF0FFF0FFF0FFF0FFF0F60
:10003000FF0FFF0FFF0FFF0FFF0FFF0FFF0FFF0F50
:020000040030CA
:0A000000ECFF39FF9FFFFFFFFFFF39
:00000001FF
