:04000000FEEFFFF020
:020000040001F9
:10FFC0000001E8EFFFF0600E0001AD6FCB9612006C
:10FFD000E3ECFFF0C386820E016EDE0EE82EFED744
:10FFE000012EFCD7C396820E016EDE0EE82EFED7E0
:10FFF000012EFCD7EAEFFFF0FEEFFFF0E0EFFFF09D
:020000040020DA
:10000000FF0FFF0FFF0FFF0FFF0FFF0FFF0FFF0F80
:10001000FF0FFF0FFF0FFF0FFF0FFF0FFF0FFF0F70
:10002000FF0FFF0FFF0FFF0FFF0FFF0FFF0FFF0F60
:10003000FF0FFF0FFF0FFF0FFF0FFF0FFF0FFF0F50
:020000040030CA
:0A000000ECFFFEDF9FFFFFFFFFFF94
:00000001FF
