:04000000FEEFFFF020
:020000040001F9
:10FF96000001E0EFFFF0600E0001AD6F020EB16FE1
:10FFA600400EB36FC99004011891800E03011A6FB9
:10FFB600630E1B6FFA0E196F1200CEECFFF0B1AE96
:10FFC600E7EFFFF0E9EFFFF0E2EFFFF0B19EC1B01F
:10FFD600EFEFFFF0F2EFFFF0010EF3EFFFF0000E90
:10FFE600FF0A016EC1500118FE0B0118C16EE2EF47
:0AFFF600FFF0FEEFFFF0CBEFFFF08D
:020000040020DA
:10000000FF0FFF0FFF0FFF0FFF0FFF0FFF0FFF0F80
:10001000FF0FFF0FFF0FFF0FFF0FFF0FFF0FFF0F70
:10002000FF0FFF0FFF0FFF0FFF0FFF0FFF0FFF0F60
:10003000FF0FFF0FFF0FFF0FFF0FFF0FFF0FFF0F50
:020000040030CA
:0A000000FFFF3BDF9FFFFFFFFFFF44
:00000001FF
