:0400000081EF00F09C
:1000080040004000400040004000400040004000E8
:1000180040004000400040004000400040004000D8
:1000280040004000400040004000400040004000C8
:1000380040004000400040004000400040004000B8
:1000480040004000400040004000400040004000A8
:100058004000400040004000400040004000400098
:100068004000400040004000400040004000400088
:100078004000400040004000400040004000400078
:100088004000400040004000400040004000400068
:100098004000400040004000400040004000400058
:1000A800B2094000400040004000400040004000CD
:1000B8004000400040004000400040004000400038
:1000C8004000400040004000400040004000400028
:1000D8004000400040004000400040004000400018
:1000E8004000400040004000400040004000400008
:0E00F8004000400040004000FF0021EF13F0E8
:1026000000000F04D8A40DD0050E0D6E0F0E0C6E39
:10261000F10EE82EFED70C2EFCD70D2EFAD70000B7
:1026200012000F50D8A41200150E0D6E4B0E0C6E3A
:10263000BE0EE82EFED70C2EFCD70D2EFAD700D0FA
:102640001200E00EF66E260EF76E000EF86E01EE2A
:1026500001F110EE0BF00900F5C4EEF4E550E15085
:10266000FAE10F6A0401080E5D6F000E5E6F000E46
:102670005F6F000151EF13F0600E0001AD6F060EA9
:10268000B16F400EB36FC788040108990989C96A00
:10269000186B0C0E0201406FD694A880D68EB890AD
:1026A00012003CEC13F00E6A010E0E24D96EDA6AA9
:1026B000050EDA22DF50C16E01EC13F00E2A0A0E6D
:0626C0000E64F2D7F0D712
:1026C800B8900F50D8A403D0010E0F6E11000F045C
:1026D800D8A411000F6A11000080C0E070381C0EE9
:0326E800070301E4
:020000040030CA
:08000000FCFF3DDF9FFFFFFF45
:01000900FFF7
:00000001FF
