:0400000081EF00F09C
:10000800AD09AD09AD09AD094000AD094000AD0924
:10001800AD09AD09AD09AD09AD09AD09AD09AD0928
:10002800AD09400040004000AD09AD09AD09AD097A
:10003800AD09AD09AD09AD09AD09AD09AD09A10914
:10004800AD09AD09AD09AD0940004000AD09AD09E4
:10005800AD09AD09AD094000AD09AD09AD09AD095E
:10006800AD09AD09AD09AD09AD09AD09AD09AD09D8
:10007800AD09AD09AD09AD094000AD09AD09AD093E
:10008800AD09AD09AD09AD09AD09AD09AD09AD09B8
:10009800AD09AD09AD09AD094000AD09400040000A
:1000A800AD09AD09AD09AD09AD09AD09AD09AD0998
:1000B800AD09AD09AD09AD09AD09AD09AD09AD0988
:1000C800AD09AD09AD09AD09AD09AD09AD09AD0978
:1000D800AD09AD09AD09AD09AD09AD09AD09AD0968
:1000E8004000AD09AD09AD094000400040004000A6
:0E00F800AD09AD09AD09AD09FF00EEEF12F044
:102500000000350E3424D96EDA6A050EDA22DF5067
:10251000C16EBF80060E366E300EE82EFED7362E08
:10252000FCD700D0BF90360E3424D96EDA6A050E7F
:10253000DA22DF50C16EBF82060E366E300EE82EF4
:10254000FED7362EFCD700D0BF92370E3424D96E7A
:10255000DA6A050EDA22DF50C16EBF84060E366ECF
:10256000300EE82EFED7362EFCD700D0BF94380EA2
:102570003424D96EDA6A050EDA22DF50C16EBF86C6
:10258000060E366E300EE82EFED7362EFCD700D063
:10259000BF96390E3424D96EDA6A050EDA22DF507E
:1025A000C16EBF88060E366E300EE82EFED7362E70
:1025B000FCD700D0BF983A0E3424D96EDA6A050EE3
:1025C000DA22DF50C16EBF8A060E366E300EE82E5C
:1025D000FED7362EFCD700D0BF9A1200500EF66EF2
:1025E000260EF76E000EF86E01EE01F110EE31F0DE
:1025F0000900F5C4EEF4E550E150FAE1356A346AB9
:10260000336A326A0401080E5D6F000E5E6F000EC1
:102610005F6F000152EF13F0600E0001AD6F030E0B
:10262000B16F400EB36F000EC96E000E0401186F3B
:10263000C00EC76EC00E086FFC0E206F030E216F18
:10264000900E03011A6F430E1B6FD68EA18E1200DF
:10265000777C395E79716F74301E763815543F730C
:1026600067506D783E1C2A766E5B2020202020204B
:10267000454C454354524F4E494341202020202091
:012680000059
:10268400B19E100E3418D8A44AEF13F04CEF13F097
:1026940050EF13F0000E346E51EF13F0342A110092
:1026A4000CEC13F081EC12F054EF13F081EF00F016
:0226B400110013
:020000040030CA
:08000000FFFF3DDF9FFFFFFF42
:01000900FFF7
:00000001FF
