:04000000FEEFFFF020
:1025000000436F6E206665206170726F62617200B9
:0D251000486F6C61206D756E646F210000D6
:10251E00F80EC96EC190C182C184F00E00D0E82EB3
:10252E00FDD7610044F301F5C194F00E00D0E82E02
:10253E00FDD7C184F00E00D0E82EFDD7C194015016
:10254E00800B016EC0EF12F0C184F00E00D0E82EA9
:10255E00FDD7610044F301F5C194F00E00D0E82ED2
:10256E00FDD7C184F00E00D0E82EFDD7C194A6EFA2
:10257E0012F0800E0118D8B4C7EF12F0C9EF12F0A6
:10258E00ABEF12F01200C190C192300E56EC14F067
:10259E00200E046E2A0EE82EFED7042EFCD7200E37
:1025AE00046E2A0EE82EFED7042EFCD7300E56EC03
:1025BE0014F0F00E00D0E82EFDD7300E56EC14F0CD
:1025CE00200E56EC14F0010EDCEC13F0280EDCECB1
:1025DE0013F00F0EDCEC13F0060EDCEC13F0010E14
:1025EE00DCEC13F0120005C501F506C502F568EC2A
:1025FE0013F00150096E000E0A6E17EF13F00A5019
:10260E000524076E000E0620086E61001CF4F6F419
:10261E00610020F4F7F40800F550F6EC13F00A2AE6
:10262E0009500A5CD8A01EEF13F020EF13F006EF4E
:10263E0013F012003FEC14F0C2EC13F0020E046E15
:10264E00010EA5EC13F0100E056E250E066EFAECBB
:10265E0012F0000E046E020EA5EC13F0010E046EC5
:10266E00250E056E0E0E066E47EC13F0000EF6EC00
:10267E0013F0210EF6EC13F025EF13F0FEEFFFF042
:10268E00000E096E000E096E5EEF13F00950042461
:10269E00076E000E0520086E61001CF4F6F4610052
:1026AE0020F4F7F40800F550F6EC13F0092A065062
:1026BE00095CD8A065EF13F067EF13F04DEF13F040
:1026CE00120001C503F502C504F570EF13F0014ABF
:1026DE00022A610004F4F6F4610008F4F7F408002D
:1026EE00F5500009D8A47EEF13F080EF13F06EEFD3
:1026FE0013F00350015C016E04500258026E12007A
:10270E000650080DF350400FDCEC13F0000E076E70
:10271E0007500424D96E000E0520DA6EDF50F6EC59
:10272E0013F0072A070E07649FEF13F0A1EF13F0C3
:10273E008FEF13F0800EDCEC13F01200056E050423
:10274E00D8A4ACEF13F0AEEF13F0B4EF13F00450C7
:10275E00800FDCEC13F0C1EF13F0020E0518D8A4B5
:10276E00BBEF13F0BDEF13F0C1EF13F00450C00F29
:10277E00DCEC13F01200260E086EA80EE82EFED723
:10278E00082EFCD700D0CAEC12F06CEC14F068ECFA
:10279E0014F0010E10EC14F00B0E046E050E056E07
:1027AE00000E066E87EC13F01200026EC1908FECD5
:1027BE0012F0000EC96EF00E00D0E82EFDD7C192B9
:1027CE00C194C1900250F00B036E035056EC14F0FE
:1027DE000238F00B036E035056EC14F01200026E2A
:1027EE00C1808FEC12F0000EC96EF00E00D0E82EF4
:1027FE00FDD7C192C194C1800250F00B036E0350FD
:10280E0056EC14F00238F00B036E035056EC14F035
:10281E001200046E0450D8A417EF14F019EF14F040
:10282E001CEF14F00E0EDCEC13F00404D8A422EF0F
:10283E0014F024EF14F027EF14F00C0EDCEC13F070
:10284E001200C80EF66E280EF76E000EF86E01EE30
:10285E000BF110EE08F00900F5C4EEF4E550E1506E
:10286E00FAE1000EF86E250EF76E000121EF13F05F
:10287E00600E0001AD6F020EB16F400EB36F000E11
:10288E00C96E000E0401186FC6800081CA90209197
:10289E00C78008910981C8941095C0841200016EFA
:1028AE000F0EC116F00E01160150C112C184F00EAA
:1028BE0000D0E82EFDD7C194120002040E111F1095
:1028CE000E00020EDCEC13F01200010EDCEC13F025
:0228DE001200E6
:020000040001F9
:04FFFC0028EF14F0E6
:020000040020DA
:10000000FF0FFF0FFF0FFF0FFF0FFF0FFF0FFF0F80
:10001000FF0FFF0FFF0FFF0FFF0FFF0FFF0FFF0F70
:10002000FF0FFF0FFF0FFF0FFF0FFF0FFF0FFF0F60
:10003000FF0FFF0FFF0FFF0FFF0FFF0FFF0FFF0F50
:020000040030CA
:0A000000FFFF33DF9FFFFFFFFFFF4C
:00000001FF
