:04000000FEEFFFF020
:1026000000636F6E205049433138463537513433BB
:1026100000507275656261204144432D444143007E
:10262000444143314441544C3A004144524553489B
:032630003A00006D
:10263400126E030E046EE80E036E12C501F5026AF3
:10264400E1EC13F001C507F502C508F5000E0A6EAA
:10265400640E096E80EC13F00750106E000E046EC9
:10266400640E036E12C501F5026AE1EC13F001C5B4
:1026740007F502C508F5000E0A6E0A0E096E80EC15
:1026840013F00750116E12C501F5026A000E046EB4
:102694000A0E036EE1EC13F00150136E70EF13F0A9
:1026A4001350300FBFEC15F07FEF13F01150300FC3
:1026B400BFEC15F01350300FBFEC15F07FEF13F0A3
:1026C4001050300FBFEC15F01150300FBFEC15F067
:1026D4001350300FBFEC15F07FEF13F00F50010AC9
:1026E400D8B452EF13F0030AD8B458EF13F0010A28
:1026F400D8B462EF13F07FEF13F012000C6A0ABE35
:1027040088EF13F086EF13F08EEF13F0096C0A1EB6
:10271400D8B00A2A010E0C6E08BE95EF13F093EFA1
:1027240013F09BEF13F0076C081ED8B0082A010EB3
:102734000C1A000E0E6E000E0D6E09500A10D8B45D
:10274400A6EF13F0A8EF13F0D0EF13F0010E0B6E09
:10275400B0EF13F0D89009360A360B2A0AAEB5EF5B
:1027640013F0B7EF13F0ACEF13F0D8900D360E362C
:102774000950075C0A500858D8A0C3EF13F0C5EFFE
:1027840013F0CAEF13F00950075E0A50085A0D807F
:10279400D8900A3209320B2EB7EF13F00C50D8B48C
:1027A400D6EF13F0D8EF13F0DCEF13F00D6C0E1E20
:1027B400D8B00E2A0DC507F50EC508F51200066A35
:1027C40002BEE9EF13F0E7EF13F0EFEF13F0016C43
:1027D400021ED8B0022A010E066E04BEF6EF13F0F4
:1027E400F4EF13F0FAEF13F0036C041ED8B0042ACC
:1027F40003500410D8B401EF14F003EF14F027EFE2
:1028040014F0010E056E0BEF14F0D8900336043665
:10281400052A04AE10EF14F012EF14F007EF14F0D1
:102824000350015C04500258D8A01BEF14F01DEFB4
:1028340014F021EF14F00350015E0450025AD890B2
:1028440004320332052E12EF14F00650D8B42DEFE3
:1028540014F02FEF14F033EF14F0016C021ED8B013
:10286400022A01C501F502C502F512008CEC15F02F
:10287400000E046E010E7FEC14F0110E056E4FEC89
:1028840015F0000E046E020E7FEC14F0010E056EBE
:102894004FEC15F07A0E156EC10E146E820EE82EF2
:1028A400FED7142EFCD7152EFAD70EEC16F0FEEC3C
:1028B40015F000017D6F000E046E010E7FEC14F024
:1028C4002A0E056E4FEC15F0030E0F6E0301EB514B
:1028D4001AEC13F0000E046E020E7FEC14F0200EBE
:1028E400056E4FEC15F0030E0F6E00017D511AECCE
:1028F40013F059EF14F0FEEFFFF0056E0504D8A4B1
:1029040086EF14F088EF14F08EEF14F00450800F6B
:10291400A6EC15F0BBEF14F0020E0518D8A495EF41
:1029240014F097EF14F09DEF14F00450C00FA6ECD0
:1029340015F0BBEF14F0030E0518D8A4A4EF14F09F
:10294400A6EF14F0ACEF14F00450940FA6EC15F0BD
:10295400BBEF14F0040E0518D8A4B3EF14F0B5EFD0
:1029640014F0BBEF14F00450D40FA6EC15F0BBEF39
:1029740014F01200F80EC96EC190C182C184A00E79
:1029840000D0E82EFDD7D1C401F5C194A00E00D02B
:10299400E82EFDD7C184A00E00D0E82EFDD7C19447
:1029A4000150800B016EEBEF14F0C184A00E00D037
:1029B400E82EFDD7D1C401F5C194A00E00D0E82EB5
:1029C400FDD7C184A00E00D0E82EFDD7C194D2EF6C
:1029D40014F0800E0118D8B4F2EF14F0F4EF14F0F0
:1029E400D7EF14F01200150E066E4B0E056EBE0ED8
:1029F400E82EFED7052EFCD7062EFAD700D0C96ADA
:102A04000401186B020E066E380E056EAD0EE82E2C
:102A1400FED7052EFCD7062EFAD7000026EC15F0BB
:102A2400020E066E380E056EAD0EE82EFED7052E8C
:102A3400FCD7062EFAD700000EEC16F00AEC16F0BE
:102A4400010ED8EC15F01200C190C192300EF0ECDA
:102A540015F0200E046E2A0EE82EFED7042EFCD7A5
:102A6400300EF0EC15F0A00E00D0E82EFDD7300E9D
:102A7400F0EC15F0200EF0EC15F0010EA6EC15F0BC
:102A8400280EA6EC15F00F0EA6EC15F0060EA6EC1B
:102A940015F0010EA6EC15F0120005C501F570EC59
:102AA40015F00150076E086A66EF15F0055008240A
:102AB400066E06C5F6F4260EF76E000EF86E0800D4
:102AC400F550BFEC15F0082A0750085CD8A06DEF4C
:102AD40015F06FEF15F058EF15F0120001C503F56E
:102AE40075EF15F0012A01C5F6F4260EF76E000EF7
:102AF400F86E0800F5500009D8A483EF15F085EFAF
:102B040015F074EF15F00350015C016E026A01BE0A
:102B140002061200600E0001AD6F060EB16F400E8A
:102B2400B36FC68004010081C6940085C68000810D
:102B3400F30E0301F317F389F38FA00E00017F6FE7
:102B44007D6BF5EC14F01200026EC190BCEC14F035
:102B5400C96AA00E00D0E82EFDD7C192C194C190DD
:102B64000250F00B036E0350F0EC15F00238F00B3A
:102B7400036E0350F0EC15F01200036EC180030ED7
:102B8400026E980EE82EFED7022EFCD7C192C19495
:102B9400C1800350F00B046E0450F0EC15F00338C0
:102BA400F00B046E0450F0EC15F01200046E0450A7
:102BB400D8A4DFEF15F0E1EF15F0E4EF15F00E0EF9
:102BC400A6EC15F00404D8A4EAEF15F0ECEF15F028
:102BD400EFEF15F00C0EA6EC15F01200016E0F0EBF
:102BE400C116F00E01160150C112C184A00E00D00E
:102BF400E82EFDD7C19412000301EC6BF381F3B10D
:102C040006EF16F008EF16F001EF16F0EB51120084
:102C1400020EA6EC15F01200010EA6EC15F012003F
:062C2400000138EF14F07E
:020000040001F9
:04FFFC0012EF16F0FA
:020000040030CA
:08000000FCFF3DDF9FFFFFFF45
:01000900FFF7
:00000001FF
