:0400000081EF00F09C
:10000800B543B543B543B5434000B5434000B54398
:10001800B543B543B543B543B543B543B543B54318
:10002800B543400040004000B543B543B543B54330
:10003800B543B543B543B543B543B543B543B543F8
:10004800D540B543B543B54340004000B543B5433B
:10005800B543B543B5434000B543B543B543B54390
:10006800B543B543B543B543B543B543B543B543C8
:10007800B543B543B543B5434000B543B543B54370
:10008800B543B543B543B543B543B543B543B543A8
:10009800B543B543B543B5434000B54340004000C0
:1000A800B543B543B543B543B543B543B543B54388
:1000B800B543B543B543B543B543B543B543B54378
:1000C800B543B543B543B543B543B543B543B54368
:1000D800B543B543B543B543B543B543B543B54358
:1000E8004000B543B543B5434000400040004000E0
:0E00F800B543B543B543B543FF0014EF87F0A1
:10FD6200004F7063696F6E20696E76616C696461C1
:10FD72002C20696E74656E7465206465206E7565ED
:10FD8200766F002A202020202020202020202020E2
:10FD92002020202020202020202020202020202061
:10FDA200202A002A2020202020202E2D2D2E202027
:10FDB2002020202020202020202020202020202041
:10FDC200202A002A20283129204C454420617A75B6
:10FDD2006C202020202020202020202020202020D5
:10FDE200202A002A20283329204C454420726F6A99
:10FDF2006F202020202020202020202020202020B2
:10FE0200202A002A20456C696A61206F7063696F3D
:10FE12006E3A202020202020202020202020202078
:10FE2200202A002A20283229204C45442076657257
:10FE32006465202020202020202020202020202037
:10FE4200202A002A20283429204C45442061706150
:10FE52006761646F20202020202020202020202085
:10FE6200202A002A2020202020207C5F5F7C7E2701
:10FE7200295F5F5F5F5F282720202020202020202D
:10FE8200202A002A2020202020207C5F5F7C202E38
:10FE92002D2D2D2D2D2D2D2E2020202020202020F7
:10FEA200202A002A20286D29204D6F7374726172F6
:10FEB20020656C206D656E7520202020202020207A
:10FEC200202A002A2020202020207C20207C207C28
:10FED200272D2D2D2D2D277C202020202020202075
:10FEE200202A002A2020202020207C3D2E7C207CDD
:10FEF2002E2D2D2D2D2D2E7C202020202020202047
:10FF0200202A002A2020202020207C2D2D7C207CCD
:10FF12007C204B434B207C7C202020202020202052
:10FF2200202A002A202020206465204E656F7069F7
:10FF320078656C205753323831322020202020201F
:10FF4200202A002A204465736172726F6C6C6164AE
:10FF52006F20706F72204B616C756E204C61752042
:10FF6200202A002A204269656E76656E69646F7385
:10FF72002061206C612061706C69636163696F6EDE
:10FF8200202A002A2A2A2A2A2A2A2A2A2A2A2A2A03
:10FF92002A2A2A2A2A2A2A2A2A2A2A2A2A2A2A2ABF
:10FFA2002A2A004C4544206170616761646F210018
:10FFB2004C454420766572646521004C45442061BD
:10FFC2007A756C21004C454420726F6A6F210041A2
:10FFD2007A756C2120202000526F6A6F2120202028
:10FFE200005665726465212020004170616761647A
:0DFFF2006F21004E656F706978656C00002E
:020000040001F9
:100000001BEC86F09C0E186ED70EE82EFED7182E2D
:10001000FCD70000000E116E205040EC86F0290E37
:10002000196E960E186E7F0EE82EFED7182EFCD78E
:10003000192EFAD70000300E116E205040EC86F0D9
:10004000300E116E205040EC86F0350EE82EFED7B3
:100050000000340E116E205040EC86F0350EE82E74
:10006000FED70000300E116E205040EC86F0340EAA
:10007000186EF20EE82EFED7182EFCD7300E116E39
:10008000205040EC86F0350EE82EFED70000340EEE
:10009000116E205040EC86F0350EE82EFED70000A1
:1000A000300E116E205040EC86F0340E186EF20EB9
:1000B000E82EFED7182EFCD7300E116E205040ECE3
:1000C00086F0350EE82EFED70000340E116E20505B
:1000D00040EC86F0350EE82EFED70000300E116E93
:1000E000205040EC86F0030E186E980EE82EFED7D6
:1000F000182EFCD7200E116E205040EC86F0350EE5
:10010000E82EFED70000240E116E205040EC86F041
:10011000350EE82EFED70000200E116E205040EC68
:1001200086F0C80EE82EFED7200E116E205040EC4F
:1001300086F0350EE82EFED70000240E116E2050FA
:1001400040EC86F0350EE82EFED70000200E116E32
:10015000205040EC86F0C80EE82EFED7800E116EBF
:10016000205040EC86F0350EE82EFED70000840EBD
:10017000116E205040EC86F0350EE82EFED70000C0
:10018000800E116E205040EC86F0C80EE82EFED78F
:10019000000E116E205040EC86F0350EE82EFED792
:1001A0000000040E116E205040EC86F0350EE82E53
:1001B000FED70000000E116E205040EC86F0C80EF5
:1001C000E82EFED7C00E116E205040EC86F0350EA2
:1001D000E82EFED70000C40E116E205040EC86F0D1
:1001E000350EE82EFED70000C00E116E205040ECF8
:1001F00086F0C80EE82EFED7000E116E205040EC9F
:1002000086F0350EE82EFED70000040E116E205049
:1002100040EC86F0350EE82EFED70000000E116E81
:10022000205040EC86F0C80EE82EFED7100E116E5E
:10023000205040EC86F0350EE82EFED70000140E5C
:10024000116E205040EC86F0350EE82EFED70000EF
:10025000100E116E205040EC86F0150E186EC60E72
:10026000E82EFED7182EFCD700D0000E116E2050BD
:1002700040EC86F0050EE82EFED70000040E116E4D
:10028000205040EC86F0350EE82EFED70000000E20
:10029000116E205040EC86F0C80EE82EFED7600E9E
:1002A000116E205040EC86F0050EE82EFED70000BF
:1002B000640E116E205040EC86F0350EE82EFED70D
:1002C0000000600E116E205040EC86F0C80EE82E43
:1002D000FED7000E116E205040EC86F0350EE82E51
:1002E000FED70000040E116E205040EC86F0350E53
:1002F000E82EFED70000000E116E205040EC86F074
:10030000C80EE82EFED7200E116E205040EC86F06D
:10031000350EE82EFED70000240E116E205040EC62
:1003200086F0350EE82EFED70000200E116E20500C
:1003300040EC86F09C0E186ED70EE82EFED7182ED5
:10034000FCD7000065EC87F061EC87F0010EFCEC57
:1003500086F01200F6C40DF5F7C40EF5F8C40FF5DB
:10036000F5C410F5B29033EF82F0BD0E056EFF0EAE
:10037000066ECDEC85F05AEC87F0000E076E020E8B
:1003800035EC84F0D10E076EFF0E086EF4EC85F0AC
:10039000000E016EFF0E026E000EDEEC86F04BEFDB
:1003A00082F0B20E056EFF0E066ECDEC85F05AECB3
:1003B00087F0000E076E020E35EC84F0E30E076E38
:1003C000FF0E086EF4EC85F0000E016E000E026E5A
:1003D000FF0EDEEC86F04BEF82F0C70E056EFF0ECF
:1003E000066ECDEC85F05AEC87F0000E076E020E1B
:1003F00035EC84F0DA0E076EFF0E086EF4EC85F033
:10040000FF0E016E000E026E000EDEEC86F04BEF6A
:1004100082F0A50E056EFF0E066ECDEC85F05AEC4F
:1004200087F0000E076E020E35EC84F0EC0E076EBE
:10043000FF0E086EF4EC85F0000E016E000E026EE9
:10044000000EDEEC86F04BEF82F0FDEC82F04BEF1D
:1004500082F0630E056EFD0E066ECDEC85F05AEC53
:1004600087F04BEF82F00201A151310AD8B4B5EF09
:1004700081F0030AD8B4D1EF81F0010AD8B4EDEFCE
:1004800081F0070AD8B409EF82F0590AD8B425EFF1
:1004900082F029EF82F010C5F5F40FC5F8F40EC50F
:1004A000F7F40DC5F6F41100850E156EFF0E166EED
:1004B0007FEC85F053EC87F0850E156EFD0E166E01
:1004C0007FEC85F053EC87F0650E156EFF0E166E0F
:1004D0007FEC85F053EC87F0250E156EFF0E166E3F
:1004E0007FEC85F053EC87F0450E156EFF0E166E0F
:1004F0007FEC85F053EC87F0850E156EFD0E166EC1
:100500007FEC85F053EC87F0A50E156EFD0E166E90
:100510007FEC85F053EC87F0850E156EFE0E166E9F
:100520007FEC85F053EC87F0E50E156EFE0E166E2F
:100530007FEC85F053EC87F0050E156EFF0E166EFE
:100540007FEC85F053EC87F0C50E156EFE0E166E2F
:100550007FEC85F053EC87F0650E156EFE0E166E7F
:100560007FEC85F053EC87F0850E156EFD0E166E50
:100570007FEC85F053EC87F0050E156EFE0E166EBF
:100580007FEC85F053EC87F0C50E156EFD0E166EF0
:100590007FEC85F053EC87F0250E156EFE0E166E7F
:1005A0007FEC85F053EC87F0E50E156EFD0E166EB0
:1005B0007FEC85F053EC87F0450E156EFE0E166E3F
:1005C0007FEC85F053EC87F0A50E156EFE0E166ECF
:1005D0007FEC85F053EC87F0850E156EFD0E166EE0
:1005E0007FEC85F053EC87F0850E156EFF0E166ECE
:1005F0007FEC85F053EC87F01200850E056EFF0E40
:10060000066ECDEC85F05AEC87F0850E056EFD0E7A
:10061000066ECDEC85F05AEC87F0650E056EFF0E88
:10062000066ECDEC85F05AEC87F0250E056EFF0EB8
:10063000066ECDEC85F05AEC87F0450E056EFF0E88
:10064000066ECDEC85F05AEC87F0850E056EFD0E3A
:10065000066ECDEC85F05AEC87F0A50E056EFD0E0A
:10066000066ECDEC85F05AEC87F0850E056EFE0E19
:10067000066ECDEC85F05AEC87F0E50E056EFE0EA9
:10068000066ECDEC85F05AEC87F0050E056EFF0E78
:10069000066ECDEC85F05AEC87F0C50E056EFE0EA9
:1006A000066ECDEC85F05AEC87F0650E056EFE0EF9
:1006B000066ECDEC85F05AEC87F0850E056EFD0ECA
:1006C000066ECDEC85F05AEC87F0050E056EFE0E39
:1006D000066ECDEC85F05AEC87F0C50E056EFD0E6A
:1006E000066ECDEC85F05AEC87F0250E056EFE0EF9
:1006F000066ECDEC85F05AEC87F0E50E056EFD0E2A
:10070000066ECDEC85F05AEC87F0450E056EFE0EB8
:10071000066ECDEC85F05AEC87F0A50E056EFE0E48
:10072000066ECDEC85F05AEC87F0850E056EFD0E59
:10073000066ECDEC85F05AEC87F0850E056EFF0E47
:10074000066ECDEC85F05AEC87F01200600E0001C9
:10075000AD6F060EB16F400EB36FCA9004012091C9
:10076000000E126E220E116E28EC87F0A280B2905D
:10077000D68E00EC80F0800E0301246F010E266FF0
:10078000050E236F830E0001846F400E856F020EED
:10079000866F060E8C6F8C0E0301426F000E416F48
:1007A0000A0E406F000E0001D56F1F0ED86F410E6C
:1007B000D96F400EDA6F050EDC6F100EDD6F080E7C
:1007C000DE6F200EDF6F010ED76F800ED66FCB96D7
:1007D00004012897CB942895010E02012B6F12007B
:1007E000196E1904D8A4F7EF83F0F9EF83F0FFEF47
:1007F00083F01750800FE6EC84F02CEF84F0020EAB
:100800001918D8A406EF84F008EF84F00EEF84F0F6
:100810001750C00FE6EC84F02CEF84F0030E19188B
:10082000D8A415EF84F017EF84F01DEF84F0175073
:10083000940FE6EC84F02CEF84F0040E1918D8A481
:1008400024EF84F026EF84F02CEF84F01750D40FBF
:10085000E6EC84F02CEF84F00B0E186E620EE82E9E
:10086000FED7182EFCD700D01200096E0904D8A4B8
:100870003CEF84F03EEF84F044EF84F00750800FAB
:100880001AEC85F071EF84F0020E0918D8A44BEF32
:1008900084F04DEF84F053EF84F00750C00F1AEC52
:1008A00085F071EF84F0030E0918D8A45AEF84F094
:1008B0005CEF84F062EF84F00750940F1AEC85F03F
:1008C00071EF84F0040E0918D8A469EF84F06BEF7F
:1008D00084F071EF84F00750D40F1AEC85F071EFBB
:1008E00084F00B0E086E620EE82EFED7082EFCD7A1
:1008F00000D01200146E1450F00B0809156E14C5C8
:1009000013F50F0E13161338F00B0809166E155059
:100910000509116E205040EC86F0350EE82EFED70A
:10092000000015500109116E205040EC86F0350E84
:10093000E82EFED7000016500509116E205040EC3D
:1009400086F0350EE82EFED7000016500109116E14
:10095000205040EC86F0350EE82EFED70000120045
:10096000046E0450F00B0809056E04C503F50F0E64
:1009700003160338F00B0809066E05500509016ED1
:10098000205061EC86F0350EE82EFED700000550B1
:100990000109016E205061EC86F0350EE82EFED77D
:1009A000000006500509016E205061EC86F0350EFE
:1009B000E82EFED7000006500109016E205061ECC0
:1009C00086F0350EE82EFED700001200146E14508B
:1009D000F00B0809156E14C513F50F0E1316133816
:1009E000F00B0809166E15500409116E205040ECEA
:1009F00086F0350EE82EFED7000015C511F5205003
:100A000040EC86F0350EE82EFED7000016500409A3
:100A1000116E205040EC86F0350EE82EFED7000017
:100A200016C511F5205040EC86F0350EE82EFED7A5
:100A300000001200046E0450F00B0809056E04C596
:100A400003F50F0E03160338F00B0809066E055068
:100A50000409016E205061EC86F0350EE82EFED7B9
:100A6000000005C501F5205061EC86F0350EE82E3A
:100A7000FED7000006500409016E205061EC86F09C
:100A8000350EE82EFED7000006C501F5205061ECBA
:100A900086F0350EE82EFED700001200A6EC83F09B
:100AA000290E1E6E960E1D6E7F0EE82EFED71D2E91
:100AB000FCD71E2EFAD7000054EC82F0000E176E01
:100AC000010EF0EC83F0F50E176EFF0E186EA6EC1B
:100AD00085F0000E176E020EF0EC83F0EC0E176E30
:100AE000FF0E186EA6EC85F0000E116E000E126E51
:100AF000000EC0EC86F07BEF85F081EF00F015C5AD
:100B000011F516C512F582EC86F01150196E000E23
:100B10001A6E9CEF85F01A501524176E000E1620E1
:100B2000186E17C5F6F418C5F7F4000EF86E080035
:100B3000F5503BEC87F01A2A19501A5CD8A0A3EFA5
:100B400085F0A5EF85F08BEF85F0120017C511F544
:100B500018C512F582EC86F011501B6E000E1C6E4B
:100B6000C3EF85F01C501724196E000E18201A6E62
:100B700019C5F6F41AC5F7F4000EF86E0800F55022
:100B80007AEC84F01C2A1B501C5CD8A0CAEF85F0BC
:100B9000CCEF85F0B2EF85F0120005C501F506C572
:100BA00002F5A1EC86F00150096E000E0A6EEAEF24
:100BB00085F00A500524076E000E0620086E07C552
:100BC000F6F408C5F7F4000EF86E0800F55047EC8F
:100BD00087F00A2A09500A5CD8A0F1EF85F0F3EFFC
:100BE00085F0D9EF85F0120007C501F508C502F5BB
:100BF000A1EC86F001500B6E000E0C6E11EF86F02A
:100C00000C500724096E000E08200A6E09C5F6F480
:100C10000AC5F7F4000EF86E0800F550B0EC84F049
:100C20000C2A0B500C5CD8A018EF86F01AEF86F057
:100C300000EF86F01200C896C8980401109710992A
:100C400012871289370E0201146F380E156F875103
:100C5000CF0B2009876F8751FC0B0109876F8651E5
:100C6000CF0B2009866F8651FC0B0109866F948F8C
:100C7000030E9C6F9451F80B0409946F969912001F
:100C8000126E010E02018D6F12501224FE0B8F6F37
:100C900011C58CF2948B99AB50EF86F052EF86F031
:100CA0004BEF86F095BB57EF86F059EF86F052EF89
:100CB00086F09AA55EEF86F060EF86F059EF86F039
:100CC0001200026E010E02018D6F02500224FE0B13
:100CD0008F6F01C58CF2948B99AB71EF86F073EF37
:100CE00086F06CEF86F095BB78EF86F07AEF86F0B1
:100CF00073EF86F09AA57FEF86F081EF86F07AEFAA
:100D000086F0120011C513F512C514F58AEF86F0AE
:100D1000114A122A11C5F6F412C5F7F4000EF86E46
:100D20000800F5500009D8A498EF86F09AEF86F0F5
:100D300088EF86F01350115C116E14501258126E29
:100D4000120001C503F502C504F5A9EF86F0014ABA
:100D5000022A01C5F6F402C5F7F4000EF86E080089
:100D6000F5500009D8A4B7EF86F0B9EF86F0A7EFE9
:100D700086F00350015C016E04500258026E1200AE
:100D8000136E13C581F0000187ABC9EF86F0CBEF7E
:100D900086F0C3EF86F011C581F087ABD2EF86F005
:100DA000D4EF86F0CDEF86F012C581F087ABDBEF94
:100DB00086F0DDEF86F0D6EF86F01200036E03C5F5
:100DC00081F0000187ABE7EF86F0E9EF86F0E1EF15
:100DD00086F001C581F087ABF0EF86F0F2EF86F088
:100DE000EBEF86F002C581F087ABF9EF86F0FBEF01
:100DF00086F0F4EF86F01200176E1750D8A403EFB8
:100E000087F005EF87F008EF87F00E0EE6EC84F030
:100E10001704D8A40EEF87F010EF87F013EF87F0D8
:100E20000C0EE6EC84F01200D60EF66E0E0EF76E87
:100E3000010EF86E0900F5C420F51F6A0401080EC2
:100E40005D6F000E5E6F000E5F6F00014EEF85F06C
:100E500012500201AF6F11C5AEF2300EAB6F800EB3
:100E6000AC6F000EAD6F200E296F290E726FCB8212
:100E7000040128931200116E11C5A3F20201B2AF52
:100E800044EF87F046EF87F03EEF87F01200016EE7
:100E900001C5A3F20201B2AF50EF87F052EF87F025
:100EA0004AEF87F012000A0E3BEC87F00D0E3BEC88
:100EB00087F012000A0E47EC87F00D0E47EC87F022
:100EC0001200020EE6EC84F01200010EE6EC84F053
:020ED00012000E
:030ED400110027E3
:020000040030CA
:08000000FCFF3DDF9FFFFFFF45
:01000900FFF7
:00000001FF
