:04000000FEEFFFF020
:1025000000496E696369616C697A616E646F206508
:102510006C007465726D6F6D6574726F004320524C
:10252000483A0054656D703A0000BBEC16F09C0E02
:10253000086ED70EE82EFED7082EFCD70000000E3E
:10254000016E270E02EC17F0290E096E960E086E2A
:102550007F0EE82EFED7082EFCD7092EFAD70000F2
:10256000300E016E270E02EC17F0300E016E270EB2
:1025700002EC17F0350EE82EFED70000340E016E87
:10258000270E02EC17F0350EE82EFED70000300EB5
:10259000016E270E02EC17F0340E086EF20EE82ED4
:1025A000FED7082EFCD7300E016E270E02EC17F076
:1025B000350EE82EFED70000340E016E270E02EC19
:1025C00017F0350EE82EFED70000300E016E270EF4
:1025D00002EC17F0340E086EF20EE82EFED7082E2D
:1025E000FCD7300E016E270E02EC17F0350EE82EE8
:1025F000FED70000340E016E270E02EC17F0350EE8
:10260000E82EFED70000300E016E270E02EC17F008
:10261000030E086E980EE82EFED7082EFCD7200E6B
:10262000016E270E02EC17F0350EE82EFED70000E3
:10263000240E016E270E02EC17F0350EE82EFED7A1
:102640000000200E016E270E02EC17F0C80EE82ED7
:10265000FED7200E016E270E02EC17F0350EE82E85
:10266000FED70000240E016E270E02EC17F0350E87
:10267000E82EFED70000200E016E270E02EC17F0A8
:10268000C80EE82EFED7800E016E270E02EC17F062
:10269000350EE82EFED70000840E016E270E02ECE8
:1026A00017F0350EE82EFED70000800E016E270EC3
:1026B00002EC17F0C80EE82EFED7000E016E270EB2
:1026C00002EC17F0350EE82EFED70000040E016E66
:1026D000270E02EC17F0350EE82EFED70000000E94
:1026E000016E270E02EC17F0C80EE82EFED7C00EC2
:1026F000016E270E02EC17F0350EE82EFED7000013
:10270000C40E016E270E02EC17F0350EE82EFED730
:102710000000C00E016E270E02EC17F0C80EE82E66
:10272000FED7000E016E270E02EC17F0350EE82ED4
:10273000FED70000040E016E270E02EC17F0350ED6
:10274000E82EFED70000000E016E270E02EC17F0F7
:10275000C80EE82EFED7100E016E270E02EC17F001
:10276000350EE82EFED70000140E016E270E02EC87
:1027700017F0350EE82EFED70000100E016E270E62
:1027800002EC17F0150E086EC60EE82EFED7082EC6
:10279000FCD700D0000E016E270E02EC17F0050EDC
:1027A000E82EFED70000040E016E270E02EC17F093
:1027B000350EE82EFED70000000E016E270E02EC4B
:1027C00017F0C80EE82EFED7600E016E270E02EC41
:1027D00017F0050EE82EFED70000640E016E270EDE
:1027E00002EC17F0350EE82EFED70000600E016EE9
:1027F000270E02EC17F0C80EE82EFED7000E016E71
:10280000270E02EC17F0350EE82EFED70000040E5E
:10281000016E270E02EC17F0350EE82EFED70000F1
:10282000000E016E270E02EC17F0C80EE82EFED740
:10283000200E016E270E02EC17F0350EE82EFED7A3
:102840000000240E016E270E02EC17F0350EE82E64
:10285000FED70000200E016E270E02EC17F09C0E32
:10286000086ED70EE82EFED7082EFCD7000093EC9A
:1028700017F08FEC17F0010E5DEC17F01200126EDE
:10288000030E046EE80E036E12C501F5026A07EC32
:1028900015F001C507F502C508F5000E0A6E640EB5
:1028A000096EA5EC14F00750106E000E046E640E55
:1028B000036E12C501F5026A07EC15F001C507F5B4
:1028C00002C508F5000E0A6E0A0E096EA5EC14F09A
:1028D0000750116E12C501F5026A000E046E0A0E51
:1028E000036E07EC15F00150136E95EF14F01350C2
:1028F000300F20EC16F0A4EF14F01150300F20EC44
:1029000016F01350300F20EC16F0A4EF14F0105016
:10291000300F20EC16F01150300F20EC16F0135051
:10292000300F20EC16F0A4EF14F00F50010AD8B4C9
:1029300077EF14F0030AD8B47DEF14F0010AD8B48D
:1029400087EF14F0A4EF14F01200000E0C6E0ABE14
:10295000AEEF14F0ACEF14F0B4EF14F0096C0A1EF3
:10296000D8B00A2A010E0C6E08BEBBEF14F0B9EF06
:1029700014F0C1EF14F0076C081ED8B0082A010E3D
:102980000C1A000E0E6E000E0D6E09500A10D8B40F
:10299000CCEF14F0CEEF14F0F6EF14F0010E0B6E46
:1029A000D6EF14F0D89009360A360B2A0AAEDBEFC0
:1029B00014F0DDEF14F0D2EF14F0D8900D360E368F
:1029C0000950075C0A500858D8A0E9EF14F0EBEF63
:1029D00014F0F0EF14F00950075E0A50085A0D8009
:1029E000D8900A3209320B2EDDEF14F00C50D8B417
:1029F000FCEF14F0FEEF14F002EF15F00D6C0E1E5C
:102A0000D8B00E2A0DC507F50EC508F51200000E48
:102A1000066E02BE10EF15F00EEF15F016EF15F072
:102A2000016C021ED8B0022A010E066E04BE1DEF14
:102A300015F01BEF15F021EF15F0036C041ED8B054
:102A4000042A03500410D8B428EF15F02AEF15F02B
:102A50004EEF15F0010E056E32EF15F0D8900336EB
:102A60000436052A04AE37EF15F039EF15F02EEFD6
:102A700015F00350015C04500258D8A042EF15F045
:102A800044EF15F048EF15F00350015E0450025A70
:102A9000D89004320332052E39EF15F00650D8B421
:102AA00054EF15F056EF15F05AEF15F0016C021EB9
:102AB000D8B0022A01C501F502C502F51200096E5F
:102AC0000904D8A466EF15F068EF15F06EEF15F065
:102AD0000750800F56EC16F09BEF15F0020E091808
:102AE000D8A475EF15F077EF15F07DEF15F00750CE
:102AF000C00F56EC16F09BEF15F0030E0918D8A482
:102B000084EF15F086EF15F08CEF15F00750940F59
:102B100056EC16F09BEF15F0040E0918D8A493EFAD
:102B200015F095EF15F09BEF15F00750D40F56EC0C
:102B300016F09BEF15F00B0E086E620EE82EFED716
:102B4000082EFCD700D0120087EC17F095EC12F09D
:102B5000E7EC15F075EC17F023EC17F08AEC16F0A3
:102B6000166E8AEC16F08AEC16F0176E8AEC16F0E8
:102B70008AEC16F0000E076E010E5FEC15F0230EC6
:102B8000076EE0EC16F0020E0F6E17503FEC14F0DB
:102B9000DF0E20EC16F01D0E076EE0EC16F0020EB4
:102BA0000F6E16503FEC14F0250E20EC16F0290E97
:102BB000156E960E146E7F0EE82EFED7142EFCD7DF
:102BC000152EFAD70000AAEF15F0FEEFFFF0000E69
:102BD000076E010E5FEC15F0010E076EE0EC16F0CB
:102BE000000E076E020E5FEC15F0120E076EE0ECA1
:102BF00016F0000E0D6E2E0E20EC16F00D0E0C6E63
:102C00002D0E0B6ED80EE82EFED70B2EFCD70C2EF9
:102C1000FAD70D2A050E0D6410EF16F012EF16F01C
:102C2000FBEF15F07A0E0C6EC10E0B6E820EE82EC5
:102C3000FED70B2EFCD70C2EFAD793EC17F0120010
:102C4000046E0450F00B0809056E04C503F50F0E61
:102C500003160338F00B0809066E05500509016ECE
:102C6000270E02EC17F0350EE82EFED700000550B7
:102C70000109016E270E02EC17F0350EE82EFED783
:102C8000000006500509016E270E02EC17F0350E04
:102C9000E82EFED7000006500109016E270E02EC57
:102CA00017F0350EE82EFED700001200046E045017
:102CB000F00B0809056E04C503F50F0E0316033863
:102CC000F00B0809066E05500409016E270E02EC90
:102CD00017F0350EE82EFED7000005C501F5270ECA
:102CE00002EC17F0350EE82EFED70000065004095E
:102CF000016E270E02EC17F0350EE82EFED700000D
:102D000006C501F5270E02EC17F0350EE82EFED7AA
:102D100000001200000E016E000E026E000E016E29
:102D2000CFA095EF16F097EF16F090EF16F05D0E2E
:102D3000E82EFED70000CFA0A0EF16F0A2EF16F00D
:102D4000A6EF16F0D8800236A9EF16F00250022442
:102D5000026ECFB0AEEF16F0B0EF16F0A9EF16F09E
:102D6000012A070E0164B7EF16F0B9EF16F090EFE5
:102D700016F002501200C896C898040110971099D6
:102D800012871289370E0201146F380E156F8751A2
:102D9000CF0B2009876F8751FC0B0109876F865184
:102DA000CF0B2009866F8651FC0B0109866F948F2B
:102DB000030E9C6F9451F80B0409946F96991200BE
:102DC00007C501F541EC17F00150096E000E0A6EBF
:102DD000F8EF16F007500A24086E08C5F6F4250E21
:102DE000F76E000EF86E0800F55020EC16F00A2A77
:102DF00009500A5CD8A0FFEF16F001EF17F0EAEFD8
:102E000016F01200026E010E02018D6F02500224B4
:102E1000FE0B8F6F01C58CF2948B99AB12EF17F0FC
:102E200014EF17F00DEF17F095BB19EF17F01BEF2C
:102E300017F014EF17F09AA520EF17F022EF17F014
:102E40001BEF17F01200CFB028EF17F02AEF17F0A2
:102E500023EF17F0D50EE82EFED70000CFA033EFFA
:102E600017F035EF17F02EEF17F0D50EE82EFED73E
:102E70000000CFB03EEF17F040EF17F039EF17F03A
:102E8000120001C503F546EF17F0012A01C5F6F45B
:102E9000250EF76E000EF86E0800F5500009D8A454
:102EA00054EF17F056EF17F045EF17F00350015CA1
:102EB000016E026A01BE02061200076E0750D8A416
:102EC00064EF17F066EF17F069EF17F00E0E56EC8F
:102ED00016F00704D8A46FEF17F071EF17F074EF36
:102EE00017F00C0E56EC16F01200C7900401089172
:102EF000BF90BC0E016E020EE82EFED7012EFCD74D
:102F0000BF806A0EE82EFED700D0C7801200600E88
:102F10000001AD6F060EB16F400EB36F1200020ECE
:102F200056EC16F01200010E56EC16F012000001DD
:042F3000A4EF15F005
:020000040001F9
:04FFFC0097EF17F074
:020000040030CA
:08000000FFFF3DDF9FFFFFFF42
:01000900FFF7
:00000001FF
