:020000007FD0AF
:100100000001600EAD6F020EB16F400EB36F0401BF
:10011000F00EC76F086F800EC96F186FC7890899F6
:100120000989BF6BF86B300EF76FCFB901D002D0E1
:10013000000E01D0040EF66F0900F5C4C1F4BF81B2
:10014000B9EC00F0BF910900F5C4C1F4BF83B9EC6C
:1001500000F0BF930900F5C4C1F4BF85B9EC00F00D
:10016000BF950900F5C4C1F4BF87B9EC00F0BF9793
:10017000DCD70000000000000000000000000000CC
:10018000000000000000000000000000000000006F
:040190000000120059
:08300000763F38775E5C785FD3
:020000040030CA
:08000000FCFF3DDF9FFFFFFF45
:01000900FFF7
:00000001FF
