:0400000081EF00F09C
:10000800424342434243424340004243400042434A
:1000180042434243424342434243424342434243B0
:10002800424340004000400042434243424342436F
:100038004243424342434243424342434243424390
:10004800D54042434243424340004000424342437A
:1000580042434243424340004243424342434243B5
:100068004243424342434243424342434243424360
:100078004243424342434243400042434243424395
:100088004243424342434243424342434243424340
:1000980042434243424342434000424340004000FF
:1000A8004243424342434243424342434243424320
:1000B8004243424342434243424342434243424310
:1000C8004243424342434243424342434243424300
:1000D80042434243424342434243424342434243F0
:1000E8004000424342434243400040004000400039
:0E00F8004243424342434243FF0016EF86F06C
:10FCD80000496D7072696D69656E646F206D656E3F
:10FCE80073616A6520656E20736567756E6461204F
:10FCF8006C696E656100496D7072696D69656E64E5
:10FD08006F206D656E73616A6520656E207072691B
:10FD18006D657261206C696E6561004F7063696F13
:10FD28006E20696E76616C696461642C20696E74FA
:10FD3800656E7465206465206E7565766F002A208F
:10FD480020202020202020202020202020202020AB
:10FD58002020202020202020202020202A002A20A7
:10FD680020202020202E2D2D2E2020202020202055
:10FD78002020202020202020202020202A002A2087
:10FD88004D656E752064656C204C43443A202020F4
:10FD98002020202020202020202020202A002A2067
:10FDA800456C696A61206F7063696F6E3A20202024
:10FDB8002020202020202020202020202A002A2047
:10FDC800286329204C696D7069617220656C204C2C
:10FDD8004344202020202020202020202A002A20E0
:10FDE80020202020207C5F5F7C7E27295F5F5F5F6B
:10FDF8005F28272020202020202020202A002A20B9
:10FE080020202020207C5F5F7C202E2D2D2D2D2D65
:10FE18002D2D2E2020202020202020202A002A20BE
:10FE280020202020207C20207C207C272D2D2D2D7B
:10FE38002D277C2020202020202020202A002A2056
:10FE480020202020207C3D2E7C207C2E2D2D2D2D29
:10FE58002D2E7C2020202020202020202A002A202F
:10FE680020202020207C2D2D7C207C7C204B434B87
:10FE7800207C7C2020202020202020202A002A20CE
:10FE880028702920436F6E74726F6C617220656CE4
:10FE9800204C434420202020202020202A002A20F3
:10FEA800286D292056697375616C697A6120656CC3
:10FEB800206D656E75202020202020202A002A2011
:10FEC80028322920417061676120656C204C4544C7
:10FED80020656E2052453020202020202A002A202C
:10FEE800287829205265746F726E6120616C206DCC
:10FEF800656E75207072696E632E20202A002A2094
:10FF080028312920456E6369656E646520656C201B
:10FF18004C454420656E2052453020202A002A2076
:10FF28004465736172726F6C6C61646F20706F727C
:10FF3800204B616C756E204C617520202A002A20A8
:10FF48004269656E76656E69646F732061206C61C5
:10FF58002061706C69636163696F6E202A002A2AC8
:10FF68002A2A2A2A2A2A2A2A2A2A2A2A2A2A2A2AE9
:10FF78002A2A2A2A2A2A2A2A2A2A2A2A2A002A200D
:10FF8800287329204573637269626520656E207342
:10FF98006567756E6461206C696E65612A002A2048
:10FFA800287029204573637269626520656E207028
:10FFB80072696D657261206C696E65612A004C45D5
:10FFC8004420656E63656E6469646F21004C454426
:10FFD800206170616761646F21004C434420626F47
:10FFE800727261646F00536567756E646100507268
:07FFF800696D6572610000F4
:020000040001F9
:1000000043EC85F09C0E186ED70EE82EFED7182E06
:10001000FCD70000000E116E1E5068EC85F0290E12
:10002000196E960E186E7F0EE82EFED7182EFCD78E
:10003000192EFAD70000300E116E1E5068EC85F0B4
:10004000300E116E1E5068EC85F0350EE82EFED78E
:100050000000340E116E1E5068EC85F0350EE82E4F
:10006000FED70000300E116E1E5068EC85F0340E85
:10007000186EF20EE82EFED7182EFCD7300E116E39
:100080001E5068EC85F0350EE82EFED70000340EC9
:10009000116E1E5068EC85F0350EE82EFED700007C
:1000A000300E116E1E5068EC85F0340E186EF20E94
:1000B000E82EFED7182EFCD7300E116E1E5068ECBD
:1000C00085F0350EE82EFED70000340E116E1E505E
:1000D00068EC85F0350EE82EFED70000300E116E6C
:1000E0001E5068EC85F0030E186E980EE82EFED7B1
:1000F000182EFCD7200E116E1E5068EC85F0350EC0
:10010000E82EFED70000240E116E1E5068EC85F01C
:10011000350EE82EFED70000200E116E1E5068EC42
:1001200085F0C80EE82EFED7200E116E1E5068EC2A
:1001300085F0350EE82EFED70000240E116E1E50FD
:1001400068EC85F0350EE82EFED70000200E116E0B
:100150001E5068EC85F0C80EE82EFED7800E116E9A
:100160001E5068EC85F0350EE82EFED70000840E98
:10017000116E1E5068EC85F0350EE82EFED700009B
:10018000800E116E1E5068EC85F0C80EE82EFED76A
:10019000000E116E1E5068EC85F0350EE82EFED76D
:1001A0000000040E116E1E5068EC85F0350EE82E2E
:1001B000FED70000000E116E1E5068EC85F0C80ED0
:1001C000E82EFED7C00E116E1E5068EC85F0350E7D
:1001D000E82EFED70000C40E116E1E5068EC85F0AC
:1001E000350EE82EFED70000C00E116E1E5068ECD2
:1001F00085F0C80EE82EFED7000E116E1E5068EC7A
:1002000085F0350EE82EFED70000040E116E1E504C
:1002100068EC85F0350EE82EFED70000000E116E5A
:100220001E5068EC85F0C80EE82EFED7100E116E39
:100230001E5068EC85F0350EE82EFED70000140E37
:10024000116E1E5068EC85F0350EE82EFED70000CA
:10025000100E116E1E5068EC85F0150E186EC60E4D
:10026000E82EFED7182EFCD700D0000E116E1E50BF
:1002700068EC85F0050EE82EFED70000040E116E26
:100280001E5068EC85F0350EE82EFED70000000EFB
:10029000116E1E5068EC85F0C80EE82EFED7600E79
:1002A000116E1E5068EC85F0050EE82EFED700009A
:1002B000640E116E1E5068EC85F0350EE82EFED7E8
:1002C0000000600E116E1E5068EC85F0C80EE82E1E
:1002D000FED7000E116E1E5068EC85F0350EE82E2C
:1002E000FED70000040E116E1E5068EC85F0350E2E
:1002F000E82EFED70000000E116E1E5068EC85F04F
:10030000C80EE82EFED7200E116E1E5068EC85F048
:10031000350EE82EFED70000240E116E1E5068EC3C
:1003200085F0350EE82EFED70000200E116E1E500F
:1003300068EC85F09C0E186ED70EE82EFED7182EAE
:10034000FCD700007BEC86F077EC86F0010EE8EC41
:1003500085F01200F6C40DF5F7C40EF5F8C40FF5DC
:10036000F5C410F5B2901D50D8A4B9EF81F0BBEFE1
:1003700081F0F7EF81F0E3EF81F0C280C60E056EE9
:10038000FF0E066EF5EC84F070EC86F05FEF82F005
:10039000C290D50E056EFF0E066EF5EC84F0C4EF2C
:1003A00081F001EC83F05FEF82F09AEC83F0010EB4
:1003B0001D6E5FEF82F0230E056EFD0E066EF5ECEE
:1003C00084F0C4EF81F00201A151310AD8B4BDEF2D
:1003D00081F0030AD8B4C8EF81F05F0AD8B4D1EF36
:1003E00081F01D0AD8B4D5EF81F0DBEF81F01D0458
:1003F000D8A4FDEF81F0FFEF81F05FEF82F047EFCF
:1004000082F07FEC86F0E20E056EFF0E066EF5ECD4
:1004100084F0C4EF81F0FE0E056EFC0E066EF5EC66
:1004200084F070EC86F0000E076E010EEBEC83F0AA
:10043000F60E076EFF0E086E1CEC85F05FEF82F083
:10044000D90E056EFC0E066EF5EC84F070EC86F0AD
:10045000000E076E020EEBEC83F0EE0E076EFF0E41
:10046000086E1CEC85F05FEF82F001EC83F0000E6B
:100470001D6E5FEF82F09AEC83F05FEF82F0230E47
:10048000056EFD0E066EF5EC84F0C4EF81F00201FE
:10049000A151630AD8B401EF82F00E0AD8B43BEF41
:1004A00082F01D0AD8B40BEF82F0030AD8B420EF13
:1004B00082F00B0AD8B435EF82F03FEF82F010C51E
:1004C000F5F40FC5F8F40EC5F7F40DC5F6F41100F8
:1004D000660E156EFF0E166ECEEC84F069EC86F09B
:1004E000460E156EFD0E166ECEEC84F069EC86F0AD
:1004F000460E156EFF0E166ECEEC84F069EC86F09B
:10050000260E156EFF0E166ECEEC84F069EC86F0AA
:10051000460E156EFD0E166ECEEC84F069EC86F07C
:10052000660E156EFD0E166ECEEC84F069EC86F04C
:10053000060E156EFE0E166ECEEC84F069EC86F09B
:10054000460E156EFE0E166ECEEC84F069EC86F04B
:10055000660E156EFE0E166ECEEC84F069EC86F01B
:10056000260E156EFE0E166ECEEC84F069EC86F04B
:10057000E60E156EFD0E166ECEEC84F069EC86F07C
:10058000460E156EFD0E166ECEEC84F069EC86F00C
:10059000A60E156EFD0E166ECEEC84F069EC86F09C
:1005A000060E156EFF0E166ECEEC84F069EC86F02A
:1005B000C60E156EFE0E166ECEEC84F069EC86F05B
:1005C000860E156EFE0E166ECEEC84F069EC86F08B
:1005D000A60E156EFE0E166ECEEC84F069EC86F05B
:1005E000460E156EFD0E166ECEEC84F069EC86F0AC
:1005F000660E156EFF0E166ECEEC84F069EC86F07A
:100600001200660E056EFF0E066EF5EC84F070ECBF
:1006100086F0460E056EFD0E066EF5EC84F070EC6D
:1006200086F0460E056EFF0E066EF5EC84F070EC5B
:1006300086F0260E056EFF0E066EF5EC84F070EC6B
:1006400086F0460E056EFD0E066EF5EC84F070EC3D
:1006500086F0660E056EFD0E066EF5EC84F070EC0D
:1006600086F0060E056EFE0E066EF5EC84F070EC5C
:1006700086F0460E056EFE0E066EF5EC84F070EC0C
:1006800086F0660E056EFE0E066EF5EC84F070ECDC
:1006900086F0260E056EFE0E066EF5EC84F070EC0C
:1006A00086F0E60E056EFD0E066EF5EC84F070EC3D
:1006B00086F0460E056EFD0E066EF5EC84F070ECCD
:1006C00086F0A60E056EFD0E066EF5EC84F070EC5D
:1006D00086F0060E056EFF0E066EF5EC84F070ECEB
:1006E00086F0C60E056EFE0E066EF5EC84F070EC1C
:1006F00086F0860E056EFE0E066EF5EC84F070EC4C
:1007000086F0A60E056EFE0E066EF5EC84F070EC1B
:1007100086F0460E056EFD0E066EF5EC84F070EC6C
:1007200086F0660E056EFF0E066EF5EC84F070EC3A
:1007300086F01200660E056EFF0E066EF5EC84F074
:1007400070EC86F0460E056EFD0E066EF5EC84F03C
:1007500070EC86F0860E056EFD0E066EF5EC84F0EC
:1007600070EC86F0C60E056EFD0E066EF5EC84F09C
:1007700070EC86F0A60E056EFF0E066EF5EC84F0AA
:1007800070EC86F0860E056EFF0E066EF5EC84F0BA
:1007900070EC86F0A60E056EFE0E066EF5EC84F08B
:1007A00070EC86F0E60E056EFE0E066EF5EC84F03B
:1007B00070EC86F0460E056EFD0E066EF5EC84F0CC
:1007C00070EC86F0660E056EFF0E066EF5EC84F09A
:1007D00070EC86F01200096E0904D8A4F2EF83F0E1
:1007E000F4EF83F0FAEF83F00750800F9AEC84F077
:1007F00027EF84F0020E0918D8A401EF84F003EF6C
:1008000084F009EF84F00750C00F9AEC84F027EFD2
:1008100084F0030E0918D8A410EF84F012EF84F0CE
:1008200018EF84F00750940F9AEC84F027EF84F0CF
:10083000040E0918D8A41FEF84F021EF84F027EFED
:1008400084F00750D40F9AEC84F027EF84F00B0E5D
:10085000086E620EE82EFED7082EFCD700D01200DC
:10086000046E0450F00B0809056E04C503F50F0E65
:1008700003160338F00B0809066E05500509016ED2
:100880001E5089EC85F0350EE82EFED7000005508D
:100890000109016E1E5089EC85F0350EE82EFED759
:1008A000000006500509016E1E5089EC85F0350EDA
:1008B000E82EFED7000006500109016E1E5089EC9B
:1008C00085F0350EE82EFED700001200146E14508D
:1008D000F00B0809156E14C513F50F0E1316133817
:1008E000F00B0809166E15500409116E1E5068ECC5
:1008F00085F0350EE82EFED7000015C511F51E5007
:1009000068EC85F0350EE82EFED70000165004097D
:10091000116E1E5068EC85F0350EE82EFED70000F3
:1009200016C511F51E5068EC85F0350EE82EFED781
:1009300000001200046E0450F00B0809056E04C597
:1009400003F50F0E03160338F00B0809066E055069
:100950000409016E1E5089EC85F0350EE82EFED795
:10096000000005C501F51E5089EC85F0350EE82E16
:10097000FED7000006500409016E1E5089EC85F078
:10098000350EE82EFED7000006C501F51E5089EC95
:1009900085F0350EE82EFED70000120015C511F5C2
:1009A00016C512F5AAEC85F01150196E000E1A6EDC
:1009B000EBEF84F01A501524176E000E1620186EF7
:1009C00017C5F6F418C5F7F4000EF86E0800F550D8
:1009D00051EC86F01A2A19501A5CD8A0F2EF84F074
:1009E000F4EF84F0DAEF84F0120005C501F506C5D6
:1009F00002F5C9EC85F00150096E000E0A6E12EF87
:100A000085F00A500524076E000E0620086E07C503
:100A1000F6F408C5F7F4000EF86E0800F5505DEC2A
:100A200086F00A2A09500A5CD8A019EF85F01BEF5E
:100A300085F001EF85F0120007C501F508C502F544
:100A4000C9EC85F001500B6E000E0C6E39EF85F08D
:100A50000C500724096E000E08200A6E09C5F6F432
:100A60000AC5F7F4000EF86E0800F55030EC84F07B
:100A70000C2A0B500C5CD8A040EF85F042EF85F0BB
:100A800028EF85F01200C896C898040110971099B5
:100A900012871289370E0201146F380E156F8751B5
:100AA000CF0B2009876F8751FC0B0109876F865197
:100AB000CF0B2009866F8651FC0B0109866F948F3E
:100AC000030E9C6F9451F80B0409946F96991200D1
:100AD000126E010E02018D6F12501224FE0B8F6FE9
:100AE00011C58CF2948B99AB78EF85F07AEF85F095
:100AF00073EF85F095BB7FEF85F081EF85F07AEF9E
:100B000085F09AA586EF85F088EF85F081EF85F076
:100B10001200026E010E02018D6F02500224FE0BC4
:100B20008F6F01C58CF2948B99AB99EF85F09BEF99
:100B300085F094EF85F095BBA0EF85F0A2EF85F0EE
:100B40009BEF85F09AA5A7EF85F0A9EF85F0A2EFBE
:100B500085F0120011C513F512C514F5B2EF85F03A
:100B6000114A122A11C5F6F412C5F7F4000EF86EF8
:100B70000800F5500009D8A4C0EF85F0C2EF85F059
:100B8000B0EF85F01350115C116E14501258126EB4
:100B9000120001C503F502C504F5D1EF85F0014A45
:100BA000022A01C5F6F402C5F7F4000EF86E08003B
:100BB000F5500009D8A4DFEF85F0E1EF85F0CFEF25
:100BC00085F00350015C016E04500258026E120061
:100BD000176E1750D8A4EFEF85F0F1EF85F0F4EF22
:100BE00085F00E0E66EC84F01704D8A4FAEF85F0B9
:100BF000FCEF85F0FFEF85F00C0E66EC84F0120040
:100C0000600E0001AD6F060EB16F400EB36FCA905B
:100C100004012091000E126E220E116E3EEC86F041
:100C2000A280B290D68E00EC80F012000A0EF66E12
:100C30000D0EF76E010EF86E0900F5C41EF51D6A63
:100C40000401080E5D6F000E5E6F000E5F6F000105
:100C50002AEF86F000EC86F0290E1C6E960E1B6EB5
:100C60007F0EE82EFED71B2EFCD71C2EFAD70000D5
:100C700068EC82F03AEF86F081EF00F0125002014A
:100C8000AF6F11C5AEF2300EAB6F800EAC6F000EC1
:100C9000AD6F200E296F290E726FCB82040128934D
:100CA0001200116E11C5A3F20201B2AF5AEF86F025
:100CB0005CEF86F054EF86F01200016E01C5A3F2DE
:100CC0000201B2AF66EF86F068EF86F060EF86F063
:100CD00012000A0E51EC86F00D0E51EC86F0120057
:100CE0000A0E5DEC86F00D0E5DEC86F01200020E31
:100CF00066EC84F01200010E66EC84F01200010E26
:060D00009AEC84F01200E1
:030D0800110027B0
:020000040030CA
:08000000FCFF3DDF9FFFFFFF45
:01000900FFF7
:00000001FF
